:020000040000fa
:080000000002040000000000f2
:020000040000fa
:04000c00b803000035
:020000040000fa
:04001000c803000021
:020000040000fa
:04001400d80300000d
:020000040000fa
:04001800e8030000f9
:020000040000fa
:04003400380300008d
:020000040000fa
:040048003804000078
:020000040000fa
:04005c00ec020000b2
:020000040000fa
:04020c00f8030000f3
:020000040000fa
:0402100008040000de
:020000040000fa
:0402140018040000ca
:020000040000fa
:0402180028040000b6
:020000040000fa
:100400006f8620000e7f22000e0188000000000091
:10041000000020000000e000020032000001200087
:1004200020028800140007005f0107000000e000c0
:1004300003003a00a0142100010020000200370050
:100440000000200001002000810f70000100320038
:1004500014000700000020000000e000020032004d
:1004600000000200000000008808020000000000f8
:100470000040da000000fe004440a90020012000f6
:100480000000e0000300320000002000a00188000e
:100490004440a800000006008a1f78008b1f7800e7
:1004a0000000060091018800800478000000eb0045
:1004b0001a003700e284440032a0b4009905ba0063
:1004c000e284440032a0b4009906ba00e2844400f9
:1004d00032a0b4000006eb00476fde00fd07b2005b
:1004e000636ce10003003a00ebff07000000eb0043
:1004f0000a003700606ce10004003a00005deb0088
:100500008b05e900fdff3e00040037006168e10053
:10051000010032000086eb000b00070019c7ba008b
:100520001905ba000e04e00003003a000a00e000da
:10053000e0ff3a0000000600fe07b2009e018800be
:100540008a047800f5ff3700395dba008b05e900b1
:100550000c003200295dba008b05e900080032006a
:100560000c00e00003003a00e284440032a0b40032
:10057000f5ff370019ddba008b05e900faff3a00f4
:100580008904e800e184440032a0b40000000600c1
:10059000dc05040000000000fa0504000000000073
:1005a00016060400000000004a06040000000000d7
:1005b0007c06040000000000c206040000000000e9
:1005c00006070400000000006807040000000000a7
:1005d0003c080400000000003600f800809fbe00c8
:1005e000829fbe00849fbe00869fbe003400f8003c
:1005f00000002000a00188000000fa0010408000e8
:10060000017d20008100680001f0a7008100ea0060
:100610008100e900cf08de00814078000000e8009a
:10062000104088000104e000030032007000200048
:100630004f0307000228ef00001880008040880068
:100640002081200011c0b3000148780085a0a900d6
:100650000080fa003400f9004f03be004f02be00d4
:100660004f01be004f00be003600f90000400600fa
:100670003600f800809fbe00829fbe00849fbe00af
:10068000869fbe003400f80000002000a001880012
:100690000000fa006080200090407800a0c3b30002
:1006a00080cf500006003e0060802000104078009f
:1006b0008040e80060802000014878001e0037007c
:1006c000608020008040eb000148780050802000ce
:1006d00090407800a0c3b30080cf500006003e00d9
:1006e00050802000104078008040e80050802000ba
:1006f0000148780010003700508020008040eb0057
:10070000014878004080200010407800f64f5000eb
:1007100006003e0040802000104078008040e80045
:10072000408020000148780003003700408020000e
:100730008040eb0001487800a080200011c0b30089
:100740000148780080002000090307008460a900a8
:100750000080fa003400f9004f03be004f02be00d3
:100760004f01be004f00be003600f90000400600f9
:100770003400f800881f780008002000a8018800d5
:100780004f0478000000fa008020a900ffff370026
:100790003400f800881f780008002000a8018800b5
:1007a0004f0478000000fa008060a900ffff3700c6
:1007b0003400f800881f780008002000a801880095
:1007c0004f0478000000fa008040a900ffff3700c6
:1007d0003400f800881f780008002000a801880075
:1007e0004f0478000000fa008080a900ffff370066
:1007f0003400f800881f780008002000a801880055
:100800004f0478000000fa008020a900ffff3700a5
:100810003400f800881f780008002000a801880034
:100820004f0478000000fa008060a900ffff370045
:100830003400f800881f780008002000a801880014
:100840004f0478000000fa008040a900ffff370045
:100850003400f800881f780008002000a8018800f4
:100860004f0478000000fa008080a900ffff3700e5
:100870003600f800809fbe00829fbe00849fbe00ad
:10088000869fbe003400f80000002000a001880010
:100890000200fa000040eb00004f780036003700fd
:1008a0001e80fb006a00b90080007800c08520002f
:1008b00000804000100078000000e0002d003200b1
:1008c0001e81fb006a10b90000007800e6004000bd
:1008d000c0852000008040001000be006100400084
:1008e000e08048006a11b900820178002286200069
:1008f000028141000089be001e80fb006a00b90031
:1009000000007800e6004000c08520000080400024
:100910001001be001e80fb006a00b90000007800d4
:100920008080e800c0852000008040001000be00ec
:10093000800f5100818f59000e003a001e80fb008d
:100940006a00b90080007800c08520000080400067
:1009500010007800000001001e80fb006a00b90052
:100960008000780020862000008140006000b800f0
:100970000089be001e4fe8001e4078000004e00021
:10098000c7ff32008500a9000080fa003400f9009a
:100990004f03be004f02be004f01be004f00be001d
:1009a0003600f9000040060000000500889fbe00e8
:1009b0008a9fbe00800478000200e0005a003200e6
:1009c00001407800814c780082814400f1f99f0059
:1009d000e20f51005400360091449800a144980061
:1009e000e1f99f00d1f99f00e60f51004e0036005b
:1009f000b1449800c1f99f00e80f51004a00360049
:100a00000905ea00630565000a8444000a055100ef
:100a1000c1ff2f00010565000080fb008000eb0096
:100a2000121020001310200043000700008cbe00ad
:100a30000a01440060b99f0071b99f00e80f55009a
:100a400039003600200498003104980040049800d2
:100a50005104980020b99f0031b99f0040b99f0010
:100a600051b99f00f80f55002f0036006004980020
:100a700071049800000c9800110c9800200c98004c
:100a8000310c9800400c9800510c980020b19f0048
:100a900031b19f0040b19f0051b19f0060b19f00f4
:100aa00071b19f0000b99f0011b99f0064016400fb
:100ab0007801410002044400020555006011b800ad
:100ac0000203be000002be000403be006022b800a4
:100ad0000000720081807200020173008381730044
:100ae0000f00370008027800009abe00029abe008c
:100af000009abe000292be00000c9800110c9800f3
:100b0000220c9800330c9800400c9800510c98006f
:100b1000620c9800730c98000a02b1000802b00041
:100b2000ff0f5500efff3e00090078004f05be00a3
:100b30004f04be0000000600020ab900001bb90005
:100b40000200b8008100420081004300000006005e
:020000040000fa
:100b5000dc050000fa050000160600004a06000049
:100b60007c060000c20600000607000068070000bf
:040b70003c0800003d
:020000040000fa
:100b74000400fa008e80e800800878000e80e80007
:100b840090007800401320000088b900000078002d
:100b9400000f780002003700000000001e0fe9007b
:100ba4001e0078000000e000fbff3c000080fa001b
:100bb400000006000200fa000000eb00000f7800bd
:100bc400050037001e00780020168800401f200012
:100bd400e7ff07001e0fe800f00f20009e007800da
:100be400808f5000f7ff34000080fa0000000600f8
:100bf4000200fa00f00f2000000f78000500370013
:100c04001e00780020168800401f2000d8ff07002f
:100c14001e0fe9001e0078000000e000f8ff3d0010
:100c24000080fa00000006000400fa000000eb0057
:100c3400000f7800100037000e80e8001e087800ce
:100c44000e80e800100078000080d1008e80e8005b
:100c540091007800808068000e80e8000108780028
:100c64000e80e8001000780020168800401f200045
:100c7400bfff07001e0fe800f00f20009e00780061
:100c8400808f5000ecff34000080fa000000060062
:100c94000400fa00f00f2000000f78001000370065
:100ca4000e80e8001e0878000e80e800100078002e
:100cb4000080d1008e80e800910078008080680078
:100cc4000e80e800010878000e80e800100078002b
:100cd40020168800401f2000a5ff07001e0fe90012
:100ce4001e0078000000e000edff3d000080fa00e7
:100cf400000006000400fa000000eb00000f78007a
:100d0400190037001e017800706626000090b900b3
:100d1400c288de004f90de00008050004402dd00f7
:100d24009e007800706626000089b9004299de00b2
:100d34004f88de00000051006a01b900020078000b
:100d440000805000800042000e80e8000108780016
:100d54000e80e8001000780020168800401f200054
:100d640083ff07001e0fe800300620009e00780075
:100d7400808f5000e3ff34000080fa00000006007a
:100d84000400fa0030062000000f78001900370034
:100d94001e017800706626000090b900c288de004b
:100da4004f90de00008050004402dd009e00780079
:100db400706626000089b9004299de004f88de0083
:100dc400000051006a01b900020078000080500060
:100dd400800042000e80e800010878000e80e800e0
:100de4001000780020168800401f200060ff0700d4
:100df4001e0fe9001e0078000000e000e4ff3d0043
:100e04000080fa00000006000600fa00100020002e
:100e1400000f78000d0037001e0078006700b9004d
:100e240080007800640047000108780064004700ef
:100e34001000780020168800401f20004cff070097
:100e44001e00780000004000000f7800000220001f
:100e54009e007800808f5000efff340001012000d5
:100e64000e80e80001087800120037000e80e800c8
:100e7400100078006700b900800078006400470023
:100e840001087800640047001000780020168800ec
:100e9400401f200036ff07000e80e8001000780095
:100ea400cf00de00008040008080d1000e80e8008a
:100eb400010878000e80e800100078000000e000cf
:100ec400eaff3c000080fa00000006000c00fa0073
:100ed400110020006a00470001087800710020001a
:100ee40064004700010878008000eb000e80e800f1
:100ef400010878000000eb00000f78008000eb0090
:100f04006600470001087800350037000000eb0058
:100f1400000f78008000eb006800470001087800ab
:100f24001a0037001e0078000000e00003003200c1
:100f34001e007800e10f500002003a001e0fe80086
:100f4400030037001e00780000004000000f780006
:100f54000e80e800100078009e0040006a00470000
:100f6400010878006a004700100078002016880005
:100f7400401f2000fefe07006800470010007800b4
:100f84008000e80068004700010878006800470016
:100f9400900078006400470010007800808f5000b3
:100fa400e0ff340064004700100078008000e9008e
:100fb40064004700010878000e80e8001000780003
:100fc4009e0040000e80e80001087800660047009b
:100fd400100078008000e8006600470001087800ef
:100fe4006600470010007800e70f5000c7ff340088
:100ff4000080fa00000006000600fa00e400470042
:101004008048780050c2b300004f780071c1b3002b
:101014000e00e8000148780001c4b3000e80e80027
:10102400014878009e80fb0064004700104078006f
:101034000080fb000088b900800078000e00e80002
:10104400104078000080fb00808040000e80e800a3
:10105400104078000080fb000001780011000900b6
:101064008200d8008000fd00004078000080fa0073
:10107400000006000600fa0030c7b300004f7800f5
:101084008000eb000e80e8000108780019003700aa
:101094001e80fb00201688008000eb0064004700df
:1010a4000108780007003700401f2000b0fe070049
:1010b40064004700100078008000e80064004700e6
:1010c400010878006400470010007800f40f500015
:1010d400f5ff34001e407800c7ff0700004f78007a
:1010e4000e80e800100078008000e8000e80e80020
:1010f400010878000e80e80010007800e90f500025
:10110400e3ff34000080fa00000006001400fa0037
:101114002c0407000000eb00000f7800e2004700f9
:10112400825a280008000900b21878000000000064
:1011340010002000cd0307000004a2000004e0001a
:101144000500320020002000c80307000004a200ac
:101154000004e000f6ff3a0010002000c30307007b
:101164000004e000050032001e007800e80f500083
:1011740002003c001e0fe80016003700100020009b
:10118400ba0307000004e000030032000000eb0093
:10119400000f78000f00370020002000b303070081
:1011a4000004e000050032001e0078000000e000aa
:1011b400020034001e0fe900060037002000200062
:1011c400aa0307000004e00002003200900020009f
:1011d400000f78001e0078000000e00009003400d1
:1011e4001e007800e90f500006003c001e00e900d4
:1011f40000004000000047000080e8001000780074
:101204000000010000000000c9ff37000200fa00de
:10121400000f78001e007800e40f50001a0032001e
:10122400e40f500009003e00e10f500010003200ae
:10123400e10f50001e003900e20f50000e00320092
:10124400e30f50000e0032001a003700e60f500082
:1012540011003200e60f50000d003900e70f500076
:101264000f003200e80f50000f0032001100370069
:10127400c402a8000f003700c422a8000d003700e4
:10128400c442a8000b003700c462a800090037005c
:10129400c482a80007003700c4a2a80005003700d4
:1012a400c4c2a80003003700c4e2a800010037004c
:1012b400000000000080fa00000006000200fa00ae
:1012c400000f78001e007800e40f50001a0032006e
:1012d400e40f500009003e00e10f500010003200fe
:1012e400e10f50001e003900e20f50000e003200e2
:1012f400e30f50000e0032001a003700e60f5000d2
:1013040011003200e60f50000d003900e70f5000c5
:101314000f003200e80f50000f00320011003700b8
:10132400c402a9000f003700c422a9000d00370031
:10133400c442a9000b003700c462a90009003700a9
:10134400c482a90007003700c4a2a9000500370021
:10135400c4c2a90003003700c4e2a9000100370099
:10136400000000000080fa00000006000200fa00fd
:10137400000f78001e007800e40f50003a0032009d
:10138400e40f500009003e00e10f5000100032004d
:10139400e10f500075003900e20f500018003200d0
:1013a400e30f50002300320071003700e60f5000b5
:1013b40047003200e60f500038003900e70f5000b4
:1013c40050003200e80f50005b0032006800370024
:1013d4002016800000407800614060000004a200f4
:1013e400614060000080fb00610060002116800005
:1013f4000100a10001007000201688005c00370085
:10140400201680000000d100614060000004a200aa
:10141400614060000080fb0061006000000040004b
:10142400211680000110a100010070002016880020
:101434004f003700201680004200de00614060004b
:101444000004a200614060000080fb0061006000b5
:101454004200dd00211680000120a100010070007f
:101464002016880042003700201680004300de006a
:10147400614060000004a200614060000080fb0045
:10148400610060004300dd00211680000130a100ee
:1014940001007000201688003500370020168000f7
:1014a4004400de00614060000004a200614060006e
:1014b4000080fb00610060004400dd002116800014
:1014c4000140a100010070002016880028003700a8
:1014d400201680004500de00614060000004a20088
:1014e400614060000080fb00610060004500dd0099
:1014f400211680000150a100010070002016880010
:101504001b003700201680004600de0061406000aa
:101514000004a200614060000080fb0061006000e4
:101524004600dd00211680000160a100010070006a
:10153400201688000e003700201680004700de00c9
:10154400614060000004a200614060000080fb0074
:10155400610060004700dd00211680000170a100d9
:101564000100700020168800010037000000000010
:101574000080fa00000006000200fa00000f780064
:101584001e007800e40f50002c003200e40f5000dd
:1015940009003e00e10f500010003200e10f50003e
:1015a40051003900e20f500014003200e30f5000e4
:1015b4001a0032004e003700e60f50002f003200b0
:1015c400e60f500025003900e70f500034003200c8
:1015d400e80f50003b003200450037002016800021
:1015e4006100600000f0a7000000ea000000ea00cb
:1015f4004f00de00004078003e00370020168000d7
:101604006200600000f0a7000000ea000000ea00a9
:101614004f00de00004078003600370020168000be
:101624006400600000f0a7000000ea000000ea0087
:101634004f00de00004078002e00370020168000a6
:101644006800600000f0a7000000ea000000ea0063
:101654004f00de000040780026003700201680008e
:101664007000600000f0a7000000ea000000ea003b
:101674004f00de00004078001e0037002116800075
:10168400000220000080600000f0a7000000ea00d3
:101694000000ea004f00de0000407800150037002b
:1016a40021168000000420000080600000f0a700e4
:1016b4000000ea000000ea004f00de00004078006d
:1016c4000c00370021168000000820000080600014
:1016d40000f0a7000000ea000000ea004f00de006e
:1016e40000407800030037000040eb0001003700a1
:1016f4000040eb000080fa00000006000200fa003f
:10170400000f78001e007800e40f50001a00320029
:10171400e40f500009003e00e10f500010003200b9
:10172400e10f50001e003900e20f50000e0032009d
:10173400e30f50000e0032001a003700e60f50008d
:1017440011003200e60f50000d003900e70f500081
:101754000f003200e80f50000f0032001100370074
:10176400c002a9000f003700c022a9000d003700f5
:10177400c042a9000b003700c062a900090037006d
:10178400c082a90007003700c0a2a90005003700e5
:10179400c0c2a90003003700c0e2a900010037005d
:1017a400000000000080fa00000006000000fa00bb
:1017b400f03f2000103088003038280000308800c6
:1017c400100020006030880000e22400ef000700d1
:1017d40000e22400ed0007000426ef00800320004f
:1017e4004030880080202500e80007000426ef0030
:1017f400c000200040308800803e2000e300070045
:101804000426ef00600020004030880080bb2000e8
:10181400de0007005e00070010c0b3000080fa007d
:10182400000006000400fa00000f78000e80e800b3
:10183400010878000a0037001e0078001040780084
:101844000000fb000000e000140032001e007800dd
:10185400104078001e0fe80013000700000000008d
:101864000e80e8001000780000f0a7000000ea00f5
:101874000000ea004f00de00004078008e80e8009f
:10188400910078000101e9008e80e8008208780068
:101894000004e000e8ff3a00010037000000000007
:1018a4000080fa00000006000200fa00004f7800f1
:1018b4001e00fb00ea0f500007003200ed0f50003d
:1018c40003003200e80f50000a0032000e00370017
:1018d4003e0007002c00370000c8bf000004e000f1
:1018e40002003a009e00070027003700910007001d
:1018f400250037004700070000c2b300eaff0700d5
:101904004400070020003700100020002030880029
:101914001e00fb0040308800803e20009b00070032
:1019240001c8bf000040e80001e8b70001c8bf00db
:10193400f04f500013003a000168ef0000c8bf00e8
:101944000004e00008003a000426ef00000c200028
:101954004030880080bb20008c00070010c0b3001a
:1019640000e8b700080037000426ef000008200054
:101974004030880080bb2000840007000068ef002e
:1019840001003700000000000080fa00000006009b
:101994000000fa000426ef00100020004030880008
:1019a40080bb2000790007000426ef0020002000ff
:1019b4004030880080bb2000740007000068ef00fe
:1019c4000168ef000080fa00000006000000fa0041
:1019d40000c8bf000004e00006003a000426ef003f
:1019e400000820004030880080bb2000670007000a
:1019f400050037000426ef00000c2000403088006a
:101a040080bb2000610007000168ef000080fa003d
:101a1400000006000200fa0001c8bf000004e00054
:101a24001a003a0000c8bf000004e00008003a00b1
:101a34000426ef00000c20004030880080bb20000a
:101a44005200070010c0b30000e8b70006003700da
:101a54000426ef00000820004030880080bb2000ee
:101a64004a0007000068ef000040eb00004f7800d8
:101a7400020037000f0007001e4fe8001e407800e8
:101a8400ee4f5000fbff36000800370001c8bf00ce
:101a94000040e90001e8b7000426ef00000120003f
:101aa40040308800803e2000380007000080fa00a3
:101ab400000006000000fa000426ef0040012000a8
:101ac40040308800803e20003000070001c8bf007d
:101ad4000040e80001e8b70001c8bf00f04f500023
:101ae40012003a000168ef0000c8bf000004e000e3
:101af40008003a000426ef00000c20004030880063
:101b040080bb20002100070010c0b30000e8b7002c
:101b1400060037000426ef0000082000403088004b
:101b240080bb2000190007000068ef000080fa0065
:101b3400000006000200fa000040eb00004f7800ad
:101b440002003700b3ff07001e4fe8001e40780074
:101b5400ef4f5000fbff36000080fa000000060043
:101b64000200fa000040eb00004f7800020037004a
:101b7400d0ff07001e4fe8001e407800ef4f5000d2
:101b8400fbff36000080fa00000006000200fa00a5
:101b9400000f7800010037001e0fe9001e007800d6
:101ba4000000e000fcff3a000080fa00000006009c
:101bb4000200fa00004f78001e4078000004e000a4
:101bc400060032000426ef00f000200040308800b8
:101bd40080bb2000edff0700050037000426ef005e
:101be400c00020004030880080bb2000e7ff0700d1
:101bf4000080fa00000006000400fa008e80e8006d
:101c0400800878000e80e80010007800e40f50008f
:101c140004003200e50f50000400320000c0eb0065
:101c24001100370000000000010037000000000030
:101c34000e80e800100078000d000700d1cc2c00c5
:101c44000100b8004308de00004f780040c6b3002e
:101c54009e40780080cf50000200360040c6b3009a
:101c6400004f78001e4078000080fa000000060053
:101c74000400fa008e80e800800878000e80e800f6
:101c840010007800e40f500004003200e50f50000b
:101c9400040032000080eb001e003700000000004a
:101ca40001003700000000000e80e800900078007a
:101cb400411988002023a8000000eb00000f7800e1
:101cc400010037001e0fe800703e20009e007800df
:101cd400808f5000fbff36002023a9000000eb009a
:101ce400000f7800010037001e0fe800703e20004e
:101cf4009e007800808f5000fbff3600000000003b
:101d040000198000610060000000e000fcff320068
:101d1400001880000080fa00000006000200fa00ab
:101d2400000f78001e007800e40f50000500320018
:101d3400e50f500006003a002ca3a90010c0b30020
:101d4400040037002c83a90010c0b3000100370041
:101d54000040eb000080fa00000006000200fa00d8
:101d6400000f78001e0078000000e0001a003a001e
:101d740011198000f0ff2100008060001019880014
:101d840000c0eb0024e3b70001198000f0f12f003c
:101d9400008060000019880021198000f00f2e00d7
:101da4000080600000c0a000201988000119800094
:101db400f0cf2f0000806000001988001119800006
:101dc40030fc2f00008060001019880021e3a80077
:101dd40010c0b300230037001e007800e10f50004c
:101de4001f003a0001198000000e2000010070005d
:101df400001988002043a80011198000f0ff210079
:101e040000806000101988001119800030fc2f0038
:101e140000806000101988002343a9002203a90050
:101e2400f0c2b30024e3b70021198000f00f2e00a4
:101e340080806000003020000100700020198800bc
:101e440095a0a80021e3a8005000200040198800b4
:101e540085a0a9003023ef0010c0b30001003700b3
:101e64000040eb000080fa00000006000400fa00c5
:101e74008e80e800800878000040eb00004f780076
:101e8400120037001e80fb006a00b9008000780051
:101e9400c085200000804000900078000e80e8009b
:101ea40010007800808f500007003a001e80fb006d
:101eb4006a00b90080007800c085200000804000de
:101ec4008000eb00010878001e4fe8001e407800f7
:101ed4000004e000ebff32000080fa00000006007e
:101ee4000800fa008e80e80080087800640047004b
:101ef4000288be000040eb00004f7800210037004c
:101f04001e80fb006a00b90080007800c0852000b4
:101f140000804000100078000000e00018003a0043
:101f24001e80fb006a00b90080007800c085200094
:101f3400008040008e80e800110878001e80fb00bd
:101f44006a00b90080007800e0852000008040002d
:101f5400e400470031187800211078001e80fb004f
:101f64006a00b900800078002086200000814000cb
:101f74006000b8000089be0010c0b300050037003f
:101f84001e4fe8001e4078000004e000dcff320031
:101f94000040eb000080fa00000006000200fa0096
:101fa400000f78001e007800e10f50001700320087
:101fb400e10f500003003900e20f50002500320009
:101fc40027003700a20020008000eb00c08520001d
:101fd40075fa07004105800080ff2f000080600033
:101fe4000000a000400588008500a9000a21ef0038
:101ff400007d20007008880000012a0090088800f5
:102004009500a80010c0b30016003700a2002000fd
:102014008000eb00c085200063fa070021058000e2
:10202400f0ff28000080600000e0a0002005880088
:102034008460a9000021ef00000028001008880037
:1020440020002800200888009460a80010c0b30075
:10205400040037009500a90010c0b3000100370048
:102064000040eb000080fa00000006000200fa00c5
:10207400000f78001e007800e20f500015003200b7
:10208400e20f500005003e000000e0002c0032008a
:10209400e10f5000060032002b003700e30f500020
:1020a40015003200e40f50001c00320026003700f7
:1020b400a1168000000420000080600000f0a7004a
:1020c4000000ea000000e9004f00de000040780054
:1020d4001e003700a1168000000820000080600068
:1020e40000f0a7000000ea000000e9004f00de0055
:1020f4000040780015003700111680000008200009
:102104000080600000f0a7000000ea000000e90081
:102114004f00de00004078000c003700a11680005c
:10212400000022000080600000f0a7000000ea0028
:102134000000e9004f00de00004078000300370093
:102144000040eb00010037000040eb000080fa0083
:10215400000006000200fa00000f78001e0078005c
:10216400e20f50000e003200e20f500005003e0066
:102174000000e00010003200e10f500006003200c1
:102184000e003700e30f500007003200e40f500048
:102194000700320009003700d2c2a8000700370048
:1021a400d2e2a80005003700c0e2a800030037000f
:1021b400d3a2a80001003700000000000080fa004c
:1021c400000006000000fa00800020004bfd07001c
:1021d4007000200049fd07006000200047fd070053
:1021e4005000200045fd07004000200043fd07008b
:1021f4003000200041fd0700200020003ffd0700c3
:10220400100020003dfd070010002000d1ff070052
:1022140020002000cfff070050002000bffe070071
:1022240062fd0700020007000080fa0000000600bb
:102234000600fa0020c0b300004f780061c4b30068
:102244000e00e8000148780071c5b3000e80e80074
:1022540001487800217420006400470001087800d8
:1022640064004700900178000e00e80010407800f8
:102274008e80e800914078001e4178008049780003
:1022840081497800824978000080fa000000060045
:020000040000fa
:102294000008000002000000000000000208000026
:1022a40002000000000000005c0800000a000000ba
:1022b40000000000040800005800000002000000b4
:1022c400000000000000000000000000000000000a
:1022d40000000000457870006c6f72006572200089
:1022e4003136200044656d006f00000050726500b7
:1022f4007373200053332000746f2000636f6e00eb
:102304007400000054696d0065203000303a2000ec
:1023140030303a00203030002000000020506f00a0
:1023240074203d0020302e003030200056646300bd
:0c2334002000000000000000000000007d
:020000040000fa
:020000040002f8
:04aff800bdfa00009e
:020000040000fa
:020000040002f8
:04affc007f3f000093
:00000001FF
